:100000000C94D60A0C94130B0C94130B0C94130B36
:100010000C94130B0C94130B0C94130B0C94130BE8
:100020000C94130B0C94130B0C947C200C94130B5A
:100030000C9497240C94130B0C94130B0C94130B2B
:100040000C94130B0C946A250C94130B0C94130B47
:100050000C94130B0C94130B0C94130B0C94130BA8
:100060000C94130B0C94130B0C94130B0C94130B98
:100070000C94130B0C94130B0C94130B0C94130B88
:100080000C94130B0C94130B0C94130B0C94130B78
:100090000C94130B0C94130B0C94130B0C94130B68
:1000A0000C94130B0C94130B0C94130B6015681227
:1000B000751291129E125E155E15781385135E15EA
:1000C0005E155E155E155E155E15411410152E1534
:1000D0005E1479149B14C514DF14702190217B22C7
:1000E00090217B22D221F5217B224A225D22000031
:1000F00000000000000000000000000000002A00D6
:100100002B00280000000000280000000000000074
:1001100000000000000000000000000000000000DF
:1001200000000000290000000000000000002C007A
:100130001E0234022002210222022402340026027E
:10014000270225022E0236002D0037003800270036
:100150001E001F0020002100220023002400250093
:1001600026003302330036022E00370238021F0207
:100170000402050206020702080209020A020B0233
:100180000C020D020E020F021002110212021302E3
:100190001402150216021702180219021A021B0293
:1001A0001C021D022F003100300023022D023500F9
:1001B0000400050006000700080009000A000B0003
:1001C0000C000D000E000F001000110012001300B3
:1001D0001400150016001700180019001A001B0063
:1001E0001C001D002F023102300235024C000000BD
:1001F00000000000000000000000000000000000FF
:1002000000000000000000000000000000000000EE
:100210000000D603A603760346031603E602B602E1
:1002200086025602260200000000000000000000C6
:1002300000000000000000000000000000000000BE
:1002400000000000000000000000000000000000AE
:10025000000000000000000000000000000000009E
:10026000000000000000000000000000000000008E
:10027000000000000000000000000000000000007E
:10028000000000000000000000000000000000006E
:10029000000000000000000000000000000000005E
:1002A000000000000000000000000000000000004E
:1002B000000000000000000000000000000000003E
:1002C000000000000000000000000000000000002E
:1002D000000000000000000000000000000000001E
:1002E000000000000000000000000000000000000E
:1002F00000000000000000000000000000000000FE
:1003000000000000000000000000000000000000ED
:1003100000000000000000000000000000000000DD
:1003200000000000000000000000000000000000CD
:1003300000000000000000000000000000000000BD
:100340000000000000000000C800000000000000E5
:10035000000000C7C9C60000000000000000000047
:1003600000000000000000000000C200000000C10A
:100370000000000000001E1F202122232425262724
:1003800000AF3A3B3C3D3E3F404142434500DFD059
:10039000D1D2D30000DDF3F2F100DE4B4E0000AE0F
:1003A0000000000000002D35522E1E1F202F30317E
:1003B000464C2B50514F212223333438B000E1B743
:1003C000B5B4242526B2B1F2F100E0E249000027DD
:1003D0000000004A4D0029141A0815171C180C12A9
:1003E000132A2B041607090A0B0D0E0F2800E11D16
:1003F0001B06190511103637F100E065E200002CEC
:10040000000000E538000E00170021003600FF0351
:10041000FF03FF03FF03FF03FF03FF03FF03FF03CC
:1004200040001E02110204000A000F00080025000F
:1004300027000000100008001700150012000C0033
:100440000700250027000000130005000800150024
:1004500011001600170008000C0011001F020A000E
:10046000100004000C000F003700060012001000FE
:100470000000040015001E001600170012001700EF
:100480000F00200000001600080017002C002D00AF
:1004900012002C0019000C002C00010A2800040096
:1004A0000F000C00040016002C000F002E0034007A
:1004B0000F0016002C002D000F001700150034004F
:1004C0002C00010A280028000000000000000000A5
:1004D000000000000000000000000000000000001C
:1004E000000000000000000000000000000000000C
:1004F00000000000000000000000000000000000FC
:1005000000000000000000000000000000000000EB
:100C0000000000000000FFFFFFFFFFFF00FFFFFFED
:100C1000FFFFFFFFFFFF01060104000401040404BD
:100C2000050406040700000001000200030005009F
:100C30000602000201020202036D6574726F6964AC
:100C40004220000000000000000000000000000042
:100C50000000000000000000000000000000000094
:100C60000009010101011461723173746F746C33F6
:100C70000000000000000000000000000000000074
:100C8000000000000000000000000000000000095B
:100C9000010101011400000000000000000000003C
:100CA0000000000000000000000000000000000044
:100CB0000000000000000000000000000000010132
:100CC000010114000000000000000000000000000E
:100CD0000000000000000000000000000000000014
:100CE0000000000000000000000000000101010100
:100CF00014DF010001E7010101E9010201DD010347
:100D000001E3010401E8010501EA010601E0010730
:100D100001DB010801E5010902E1010B02DE010D21
:100D200001E4010E0161416242634364446545662A
:100D3000466747684869496A4A6B4B6C4C6D4D6E13
:100D40004E6F4F7050715172527353745475557683
:100D5000567757785879597A5A31213240332334AB
:100D6000243525365E3726382A39283029000000F8
:100D7000000000000020202D5F3D2B5B7B5D7D5C33
:100D80007C237E3B3A2722607E2C3C2E3E2F3F0068
:100D90000000000000000000000000000000000053
:100DA0000000000000000000000000000000000043
:100DB0000000000000000000000000000000000033
:100DC00000000000002F2F2A2A2D2D2B2B00003190
:100DD0000032003300340035003600370038003967
:100DE0000030002E005C7C000000000000000000CD
:100DF00000000000000000000000000000000000F3
:100E000000000000006162636465666768696A6B80
:100E10006C6D6E6F707172737475767778797A41D4
:100E200042434445464748494A4B4C4D4E4F50512A
:100E300052535455565758595A3031323334353647
:100E40003738392122232425262728292A2B2C2DFF
:100E50002E2F3A3B3C3D3E3F405B5C5D5E5F607BDE
:100E60007C7D7E001A03450061007300790041001B
:100E70005600520020004A004400340030000000B8
:100E80000403090409022200010100A03209040040
:100E9000000103010100092111010001223F0007A7
:100EA00005810308000109025400030100A0320972
:100EB0000400000103010100092111010001223F8A
:100EC0000007058103080001090401000103010274
:100ED00000092111010001223A00070582030300E5
:100EE00005090402000103000000092111010001AD
:100EF000221B0007058303020008090254000301B6
:100F000000A03209040000010301010009211101C0
:100F10000001223F000705810312000109040100BE
:100F20000103010200092111010001223A00070515
:100F300082030300050904020001030000000921E7
:100F400011010001221B00070583030200081201A2
:100F5000000200000008EB03FF2001000001000177
:100F6000050C0901A101050C160100269C021A01BD
:100F7000002A9C02751095018100C005010902A19B
:100F8000010901A100050919012903150025019591
:100F9000037501810295017505810105010930097B
:100FA000311681FF267F003600004600009502754D
:100FB000088106C0C005010906A101050719E0293D
:100FC000E7150025017501950881029501750881D5
:100FD000010508190129059505750191029501750D
:100FE0000391011500250105071900297F958075DA
:100FF000018102C005010906A101050719E029E7E1
:10100000150025017501950881029501750881017A
:1010100005081901290595057501910295017503CA
:101020009101150025FF0507190029FF9506750890
:101030008100C04F7574206F662072616E67652EE7
:101040000A00456E746572206E657720646566617E
:10105000756C742064696D6D6572206C6576656C65
:101060002028312D3136293E2000456E74657220CE
:101070006E65772064656661756C74206261636B70
:101080006C6967687420656E61626C652028312D1B
:1010900031293E2000456E746572206E6577206DA3
:1010A0006F757365206D6F76656D656E74206D75F7
:1010B0006C7469706C6965722028312D3939293E4C
:1010C0002000456E746572206E65772062617365DD
:1010D000206D6F757365206D6F76656D656E74201C
:1010E00028312D3939293E20000A456E7465722059
:1010F0006E657720646F75626C65746170206465DD
:101100006C61792074696D6520696E206D7320288B
:10111000312D393939293E20000A456E7465722017
:101120006E6577207461702074696D6520696E202A
:101130006D732028312D393939293E2000456E74D0
:101140006572206E6577206465626F756E636520D9
:1011500074696D6520696E206D732028312D3939D1
:10116000293E20005365743A2000456E7465722054
:101170006E65772064656661756C74206C61796555
:10118000722028302D39293E20004E756D206C6F5D
:10119000636B206973206C696E6B656420746F20CB
:1011A0007468652073797374656D206E756D206C3D
:1011B0006F636B2E0A004E756D206C6F636B20772A
:1011C000696C6C2066756E6374696F6E20696E64FD
:1011D0006570656E64656E746C79206F66207468E6
:1011E000652073797374656D206E756D206C6F6307
:1011F0006B2E0A004B6579626F61726420616374C3
:101200007320617320657874656E646564204E4B4D
:10121000524F206B6579626F6172642077697468E0
:10122000206D6F75736520616E64206D6564696102
:10123000206B6579732E0A004B6579626F61726469
:10124000206163747320617320364B524F206B65AD
:1012500079626F61726420706C7573206D6F757345
:101260006520616E64206D65646961206B657973CA
:101270002E0A004B6579626F617264206973206C7D
:10128000696D6974656420746F207374616E646144
:10129000726420364B524F20626F6F742D636F6DF6
:1012A00070617469626C65206B6579626F617264EC
:1012B0002E0A005363726F6C6C206C6F636B207727
:1012C000696C6C206E6F742061666665637420774C
:1012D000696E206C6F636B2E0A0057696E646F77BE
:1012E00073206B65792077696C6C20626520646976
:1012F0007361626C6564207768656E207363726FDA
:101300006C6C206C6F636B20697320656E61626C1E
:1013100065642E0A004E756D206C6F636B207769D3
:101320006C6C206E6F7420616666656374206E75E8
:101330006D62657220726F772E0A004E756D626560
:101340007220726F772077696C6C206265207377EA
:10135000617070656420666F72206E756D70616477
:10136000206B657973207768656E206E756D206CD3
:101370006F636B20697320656E61626C65642E0A11
:1013800000496E707574206E6F74207265636F67AC
:101390006E697A65642E0A000A54696D696E672069
:1013A0004D656E753A0A3129205365742064656273
:1013B0006F756E63652074696D650A322920536507
:1013C00074206D617820686F6C642074696D65208D
:1013D000666F72207461700A332920536574206D22
:1013E00061782064656C61792074696D6520666F31
:1013F0007220646F75626C65207461700A342920F4
:101400005365742062617365206D6F757365206D1F
:101410006F76656D656E740A352920536574206D8D
:101420006F757365206D6F76656D656E74206D7573
:101430006C7469706C6965720A3929204261636B4A
:101440000A3E20000A436F6E666967204D656E751F
:101450003A0A312920546F67676C65207669727487
:1014600075616C206E756D207061640A322920549C
:101470006F67676C652077696E206C6F636B206F98
:101480006E207363726F6C6C206C6F636B0A332910
:10149000205365742064656661756C74206C617995
:1014A00065720A342920546F67676C652062617326
:1014B0006963206B6579626F6172640A3529205413
:1014C0006F67676C6520756E6C696E6B206E756DED
:1014D000206C6F636B0A362920536574206465663F
:1014E00061756C742064696D6D6572206C657665DC
:1014F0006C0A3729205365742064656661756C74C5
:10150000206261636B6C6967687420656E61626CF0
:10151000650A3929204261636B0A3E20000A4D6149
:10152000696E204D656E753A0A312920436F6E66EB
:101530006967206D656E750A32292054696D696E80
:1015400067206D656E750A34292052657365740ACB
:10155000392920517569740A3E20001E4D1F512003
:101560004E21502200234F244A2552264B2749372B
:101570004CE200E900EA00E500B500B600B700CD96
:10158000002402250283018A019201940121022391
:1015900002C101C202C304C408C510E001E102E2B5
:1015A00004E308E410E520E640E7800011241FBEB4
:1015B000CFEFDAE0DEBFCDBF84B714BE98E10FB63F
:1015C000F89490936000109260000FBE83FF0EC0ED
:1015D0008091B2039091B3038D3A9E4D39F41092ED
:1015E000B3031092B203E0E0FEE7099585B7806887
:1015F00085BF85B7806885BF11E0A0E0B1E0EAE86B
:10160000FEE402C005900D92AA38B107D9F723E095
:10161000AAE8B1E001C01D92A23BB207E1F70E9427
:1016200035230C9443270C9400001092B8011092BB
:10163000B7011092B4011092B3011092C20110923E
:10164000C10108959091B5018091C001992379F16C
:10165000811132C08091B601811125C08091D301E2
:1016600081111EC0E091AA01E91305C01092B501D5
:101670001092AA0123C081E08E0F8093AA01F0E0AE
:10168000EE0FFF1FED53FE4F80819181813019F4E1
:101690009093B60113C09093AC018093D3010EC018
:1016A0001092D3010BC081508093B60107C0811105
:1016B00003C01092B20102C0811103C081E0809387
:1016C000C001089580913A029091AD01981721F1DF
:1016D0008093AD01882301F1883211F0883519F427
:1016E0001092AB0108959091AF018A3259F4992379
:1016F00099F091509093AF01E92FF0E0E754FE4F3D
:1017000010820895963040F4E92FF0E0E754FE4F40
:1017100080839F5F9093AF0108957091B5019C0104
:10172000672F462F471B683058F06093B501840F30
:10173000911D47FD9A959093C2018093C10120C0ED
:10174000F901459154912F5F3F4F411107C06093BC
:10175000B5011092C2011092C10112C0FA01FF2717
:10176000EE0FFF1FE251FF4F45915491E62FF0E03D
:10177000EE0FFF1FED53FE4F518340836F5FD1CFBC
:1017800081E0611101C080E08093B201882319F0EB
:1017900081E08093BF0181E008954091B50128E088
:1017A00030E0241B31092617370770F140E0242F61
:1017B000332727FD309526173707D0F45091B50110
:1017C000FC01E20FF31FE081F0E0EE0FFF1FE2519A
:1017D000FF4F25913491E52FF0E0EE0FFF1FED5301
:1017E000FE4F318320835F5F5093B5014F5FDFCFA2
:1017F00081E0672B09F480E08093B201882331F007
:1018000081E08093BF01089580E0089581E008950C
:101810009091B501983088F4E92FF0E0EE0FFF1FAA
:10182000ED53FE4F808361839F5F9093B50181E00C
:101830008093B2018093BF01089580E008952091C4
:10184000B501211135C09C0160E0683060F0609303
:10185000B501262F220F330B280F391F3093B80103
:101860002093B70119C0F901459154912E5F3F4F64
:101870004115510539F46093B5011092B8011092E9
:10188000B7010AC0E62FF0E0EE0FFF1FED53FE4F49
:10189000518340836F5FD9CF81E0611101C080E047
:1018A0008093B201882331F081E08093BF010895D5
:1018B00080E0089581E00895CF932091B501211132
:1018C00048C07093B1016093B001C0E0DC0120E03A
:1018D00030E02617370769F1C83058F0C093B501DA
:1018E000220F331F280F391F3093B4012093B30107
:1018F00022C04D915D91EC2FF0E0EE0FFF1FED53F4
:10190000FE4F51834083CF5F4091B0015091B101B0
:10191000415051095093B1014093B0012F5F3F4FA7
:10192000452BB9F6C093B5011092B4011092B301E2
:1019300002C0C093B50181E09091B501911101C041
:1019400080E08093B201882331F081E08093BF0171
:1019500003C080E001C081E0CF9108958091B20181
:1019600081110C94220B8091B7019091B8010097DE
:1019700011F00C941F0C8091B3019091B401009769
:1019800031F06091B0017091B1010C945C0C8091C8
:10199000C1019091C201009711F00C948D0B10922F
:1019A000BF018091AB0181110C94620B08951092DC
:1019B000B9011092BA011092BB011092BC011092B1
:1019C000BD011092BE011092AF011092AD0181E0F5
:1019D0008093AB0108952091D301FC0120830895E9
:1019E0002091D301222391F0322F369536953695EA
:1019F000FC01E30FF11D822F877021E030E001C070
:101A0000220F8A95EAF78081822B80830895E82F40
:101A1000F0E0EE0FFF1FE251FF4F85919491089582
:101A200081E08093D70108952091D701AC01249FD4
:101A3000C001259F900D11246AE070E00E948C2661
:101A40008091D601562F581B852F6093D6012F5FAA
:101A50002093D7012B3028F01092D60191E090937B
:101A6000D70108958091E702811104C0809141025D
:101A7000882319F181E08093DA012091DE019091B1
:101A8000D8018091E4013091D901311121C0989F92
:101A9000C0011124820F911D0E94140D9091E70244
:101AA000899F902D11249093D50190914102899F97
:101AB000802D11248093D4010BC01092DA01109272
:101AC000D6011092D5011092D4018AE08093D701FB
:101AD0008091D901811103C081E08093D9010895DB
:101AE000CF93DF93CDB7DEB72F970FB6F894DEBF55
:101AF0000FBECDBF47E14093DF011092E701109286
:101B0000E9011092DD0130E13093E3011092E80128
:101B100026E02093EA011092E0011092DB0180EFB1
:101B200090E09093E6018093E50188E89FEF909321
:101B3000E2018093E10195E09093DE018FE08093D4
:101B4000E40149831A821B821C823D831E822F83FB
:101B50001886198620EF2A871B8628E82C872FEF06
:101B60002D879E878F874FE050E060E070E0CE01C8
:101B700001960E9416272F960FB6F894DEBF0FBE6F
:101B8000CDBFDF91CF9108950F931F93CF93DF9334
:101B9000C1EFDCE0FE01329684913196E49190E051
:101BA000E23059F4FE0105911491805090400E945A
:101BB0001027F8019183808309C0FE0105911491DB
:101BC000805090400E940827F80180832496FDE011
:101BD000C532DF07F9F66091DF01673139F070E057
:101BE00041E080E50E9493110E94700D8091E80110
:101BF0008093DC01DF91CF911F910F91089590E0C8
:101C0000FC01EE0FFF1FEE0FFF1FED50F34F24916D
:101C1000FC01EE0FFF1FEE0FFF1FEC50F34F34914E
:101C2000FC01EE0FFF1FEE0FFF1F822F90E0EF5021
:101C3000F34F323041F4A591B4916D917C91805075
:101C400090400C942E27A591B4916C9180509040B7
:101C50000C94202785E08093EF0108958091EE0198
:101C60002EE28202C0011124875C934FFC01B996D9
:101C700044913196349131962491319654919091BA
:101C8000EC018091EB01913061F028F0923081F00D
:101C90009330A9F01AC0442321F06AE10E94802603
:101CA0002EC0332329F06AE10E948026965E27C069
:101CB000222329F06AE00E9480269C5C20C05523E4
:101CC00021F0982F9F71925C1AC0411102C060E010
:101CD00001C06AE13111665E2111665F5111605EDB
:101CE0000E948026411101C0965E311103C09A31D5
:101CF00034F0965E211103C094330CF0965FE92F07
:101D0000FF27E7FDF095EB5FF14F84910895845034
:101D10009272E82FF0E0EE0FFF1F911103C0EB5D10
:101D2000F24F02C0EA5DF24F849108950F931F9322
:101D3000CF93DF93C091EE018EE2C802E00111243F
:101D4000C75CD34F2091EC01FE01B8966491822FBD
:101D50000E948026192F0091EB01822F90E0609164
:101D6000AE01772767FD70950E94A0269927880FFE
:101D7000991F8E5B9D4FFC01808191810E94870E8F
:101D8000800F282F220F87FD2F5F2093EB01FE018C
:101D9000E10FF11DC4918091EB018C278093EB0141
:101DA000DF91CF911F910F910895FF920F931F9391
:101DB000CF93DF938091EE012EE28202C0011124C5
:101DC000875C934FFC01BD96F4900F2D10E0C0E5A9
:101DD000D0E0C01BD10BCC0FDD1FCE5BDD4F2091BF
:101DE000EF01223009F439C028F4222351F02130C8
:101DF000C1F0A1C0233009F456C0243009F477C0E3
:101E00009AC01092EB0121E02093EF011092EC01B7
:101E1000FC01B896849181118EC085E08093EF011A
:101E20008AC03091EC01FC01E30FF11D2491409137
:101E3000EB01240F2093EB013F5F3093EC01FC0199
:101E4000B8968491381708F476C082E08093EF0149
:101E50001092EC012093ED016EC0C091ED01A091B4
:101E6000EC01B0E0AA0FBB1FAE5BBD4F8D919C9102
:101E70000E94870E8C0F8093ED014091EC014F5F23
:101E80004093EC0150E02091AE01332727FD3095BF
:101E9000421753070CF44FC06F2D0E948026909379
:101EA000ED0183E01FC00E94960E8091ED01C80FE6
:101EB000D11DC80FD11D0E942E0E0E94070D9983BF
:101EC00088838091ED0190E00196B8010E94A026E0
:101ED0008093ED018091EC018F5F8093EC018F1571
:101EE00050F184E08093EF011092EC0124C0409106
:101EF000EC01842F90E0880F991FC80FD91F28810B
:101F00003981FC01EE5BFD4F3183208381E0840F3A
:101F10008093EC018F1578F085E08093EF01F092CB
:101F2000AE01B80182E492E0DF91CF911F910F9151
:101F3000FF900C945C0CDF91CF911F910F91FF905B
:101F400008958091EF01853011F00C94D50E08951D
:101F5000292F332723303105E9F044F421303105AE
:101F600009F44FC02230310541F05AC02132310509
:101F700001F12232310591F153C08091DC018330AF
:101F800009F444C0813009F046C084E590E026EAB7
:101F90003EE063C09927009731F0019709F040C0F7
:101FA000E4E6FEE002C0E0E8FEE0849190E09F01FC
:101FB00054C06130D1F138F0623091F589E090E0A1
:101FC0002EE33FE04AC08091DC01833099F18130FB
:101FD000B1F589E090E028EB3EE03FC06130A1F12F
:101FE00038F06230E9F48BE190E020E63FE035C064
:101FF0008091DC0180FF2DC08FE390E024EF3FE073
:102000002CC082E190E02EE43FE027C082E290E025
:1020100024E83EE022C084E590E02AEF3EE01DC0C7
:1020200080E090E020E030E018C089E090E025E218
:102030003FE013C089E090E026E93EE00EC089E071
:1020400090E02CE03FE009C08AE390E02BE73FE01E
:1020500004C08FE390E025EB3FE0FA013183208359
:10206000089508950895CF93DF9380E291E00E9450
:102070000F1DC82F8091DC0181FD0BC080E191E034
:102080000E940F1DD82F80E091E00E940F1D8D232C
:10209000C823CC2311F080E001C083E00E946F1BB5
:1020A0008091E20084608093E200DF91CF910895F7
:1020B00080E291E00E94D81B8091DC0181FD08C084
:1020C00080E191E00E94D81B80E091E00C94D81B45
:1020D000089580912E0190912F01009729F001978A
:1020E00090932F0180932E018091DC0181FD16C019
:1020F00080911E0190911F01009729F00197909304
:102100001F0180931E0180910E0190910F01009795
:1021100029F0019790930F0180930E01089508957F
:1021200080E00C946F1B80E00C946F1B0F931F9347
:10213000CF93DF93E90121E08032920761F510929D
:10214000C0013091DC012091BF01CE01029630FD2B
:102150000CC030912901332341F0222319F00E9451
:10216000F00C07C00E94D71A09C0222329F00E9450
:10217000EB0C8091AC0104C00E94C01A8091260231
:1021800088838091DC0180FF03C088E090E024C058
:1021900082E190E021C080519140B1F41092D901C8
:1021A0008091E60288838091D50189838091D40152
:1021B0008A8383E090E0F8019183808381E09091AD
:1021C000DA0191110DC00BC08091E4029091E502FB
:1021D0009983888382E090E0F8019183808380E096
:1021E000DF91CF911F910F910895CF93DF93E90174
:1021F0008052914009F056C08091E001811114C0D5
:1022000098818091E90190FF09C0882319F081E04D
:102210008093EB0280E00E94761B06C08111109231
:10222000EB0280E00E94811B888181FF04C081E075
:102230000E94761B03C081E00E94811B888182FF7F
:102240000EC082E00E94761B8091E701882399F0FE
:1022500081E08093EE0285E00E94761B0CC082E054
:102260000E94811B8091E701882329F01092EE02E1
:1022700085E00E94811B888183FF04C083E00E9467
:10228000761B03C083E00E94811B888184FF05C008
:1022900084E0DF91CF910C94761B84E0DF91CF91A5
:1022A0000C94811BDF91CF9108958091DC0180FF18
:1022B00009C088E08093280188E090E09093230192
:1022C00080932201089580E291E00E94231D809175
:1022D000DC0181FD08C080E191E00E94231D80E0C7
:1022E00091E00E94231D0E9493228091FE02909112
:1022F0008A01981759F06091FE0270E041E086EA89
:102300000E9493118091FE0280938A01089580912A
:10231000FC02882331F08091FE02853011F40C9488
:10232000E51D0895089508958A3010F4805D08959C
:10233000895C08951F93CF93DF93182FEB0182954B
:102340008F700E9494118883812F8F700E94941146
:102350008983DF91CF911F9108958F929F92AF92C1
:10236000BF92CF92DF92EF92FF920F931F93CF9382
:10237000DF931F92CDB7DEB79C014B0180E3FB01D9
:10238000808380E28183828303E010E084E6C82EAC
:10239000D12C9AE0B92E6C2D70E0D11003C0261715
:1023A000370798F07401ED0CF11CD7FCFA94C901C1
:1023B0000E948C26A82E862F99830E949411F701E3
:1023C00080832A2D9981392FD3948C2D6B2D0E94D7
:1023D0008026C82E0150110901151105E1F60F9054
:1023E000DF91CF911F910F91FF90EF90DF90CF90F1
:1023F000BF90AF909F908F90089597EA980F993073
:1024000010F48855089592EE980F993010F48D517C
:1024100008959CEF980F963010F48A5F089580E03D
:102420000895BF92CF92DF92EF92FF920F931F9386
:10243000CF93DF93EC018B0180E090E0B12CE42E90
:10244000F12C2B2D332727FD30952017310798F4D9
:102450008E9D60018F9DD00C9E9DD00C1124FE019D
:10246000E20FF31F80810E94FD119601280F311D9C
:10247000C901B394E6CFDF91CF911F910F91FF90E7
:10248000EF90DF90CF90BF9008951F93CF93DF938D
:1024900000D000D0CDB7DEB78091F101882319F0CC
:1024A0008091BF016BC08091F201882329F0809157
:1024B000AB018093F20104C38091F00190E0873179
:1024C000910508F0FBC2FC01EA5AFF4F0C94D62696
:1024D0008DE195E10E948D0B11E01093F1010E94B6
:1024E000D70C1093F20182E0E6C211E01093F001E4
:1024F0008091B9010E94FD11893009F4DFC2843056
:1025000019F41093F301DCC2813009F4D3C2823094
:1025100009F484C281E893E10E948D0B1093F101CC
:10252000CFC284E494E10E948D0B11E01093F1017D
:102530000E94D70C1093F20184E0BDC213E0109307
:10254000F0018091B9010E94FD11893009F4E7C0C2
:102550008130B9F49091E90198279093E90182E0E4
:102560000E94FF0D8091E901882319F08BE393E12C
:1025700002C085E193E10E948D0B81E08093F1011F
:102580009FC2823099F48091E70191E0892780937E
:10259000E70181E00E94FF0D8091E701882319F097
:1025A0008AED92E1E8CF83EB92E1E5CF833001F54C
:1025B00084E691E10E948D0BBE016F5F7F4F809199
:1025C000DD010E949A118AE08B8363E070E0CE0106
:1025D00001960E94CD0B8AE691E10E948D0B11E0DD
:1025E0001093F1010E94D70C1093F2018FE063C2A7
:1025F0008430F9F48091E801811109C081E0809371
:10260000E80185E00E94FF0D88E392E1B4CF8130BC
:1026100041F41093E80185E00E94FF0D83E792E109
:10262000AACF1092E80185E00E94FF0D84EF91E1AE
:10263000A2CF853099F48091E00191E089278093C1
:10264000E00187E00E94FF0D8091E001882319F0EE
:1026500086EB91E190CF8AE891E18DCF863009F544
:1026600084E691E10E948D0B8091E301BE016F5FD2
:102670007F4F90E00E94AD118AE08B8363E070E0B1
:10268000CE0101960E94CD0B82E490E10E948D0B59
:1026900011E01093F1010E94D70C1093F20180E138
:1026A0000AC2873011F584E691E10E948D0B80917A
:1026B000DB0190E0BE016F5F7F4F01960E94AD117C
:1026C0008AE08B8363E070E0CE0101960E94CD0B1F
:1026D0008AE690E10E948D0B11E01093F1010E94B7
:1026E000D70C1093F20181E1E6C181E893E143CF79
:1026F00088E993E10E948D0B11E01093F1010E9493
:10270000D70C1093F20188E0D6C187E08093F001E6
:102710008091B9010E94FD11182F893011F481E0D8
:10272000CAC1813001F584E691E10E948D0B809150
:10273000EA01BE016F5F7F4F90E00E94AD118AE019
:102740008B8363E070E0CE0101960E94CD0B8DE398
:1027500091E10E948D0B1093F1010E94D70C109310
:10276000F20182E1A8C1823001F584E691E10E9484
:102770008D0BBE016F5F7F4F8091E5019091E60167
:102780000E94AD1163E070E0CE0101960E94CD0B76
:1027900089E191E10E948D0B11E01093F1010E94FB
:1027A000D70C1093F20183E186C1833019F584E6DA
:1027B00091E10E948D0B8091E1019091E201BE01B7
:1027C0006F5F7F4F9195819591090E94AD1163E0F4
:1027D00070E0CE0101960E94CD0B89EE90E10E943F
:1027E0008D0B11E01093F1010E94D70C1093F201B0
:1027F00084E161C1843009F584E691E10E948D0B8A
:102800008091DE01BE016F5F7F4F90E00E94AD11AD
:102810008AE08B8363E070E0CE0101960E94CD0BCD
:1028200082EC90E10E948D0B11E01093F1010E9467
:10283000D70C1093F20185E13EC1853009F040C10B
:1028400084E691E10E948D0B8091E401BE016F5FEF
:102850007F4F90E00E94AD118AE08B8363E070E0CF
:10286000CE0101960E94CD0B85E990E10E948D0B6F
:1028700011E01093F1010E94D70C1093F20186E150
:102880001AC16091AF0170E04AE089EB91E00E94CB
:1028900011128A30910508F006C18093DD0183E0B2
:1028A0000E94FF0D84E691E10E948D0BBE016F5FD7
:1028B0007F4F8091DD010E949A11ECC06091AF01C1
:1028C00070E04AE089EB91E00E9411129C012150D6
:1028D00031092336310508F09AC08093EA0186E079
:1028E0000E94FF0D84E691E10E948D0B8091EA0128
:1028F0007FC06091AF0170E04AE089EB91E00E94F7
:1029000011129C0121503109273E334008F07FC04D
:102910009093E6018093E50189E00E94FF0D84E633
:1029200091E10E948D0BBE016F5F7F4F8091E501A9
:102930009091E60127C06091AF0170E04AE089EB19
:1029400091E00E9411129C0121503109273E334031
:1029500008F05DC09195819591099093E201809373
:10296000E1018AE00E94FF0D84E691E10E948D0B57
:102970008091E1019091E201BE016F5F7F4F9195DF
:10298000819591090E94AD113BC06091AF0170E04B
:102990004AE089EB91E00E9411129C01215031091B
:1029A00023363105A0F58093DE018BE00E94FF0DF8
:1029B00084E691E10E948D0B8091DE0119C0609147
:1029C000AF0170E04AE089EB91E00E9411129C0196
:1029D0002150310923363105D0F48093E4018CE095
:1029E0000E94FF0D84E691E10E948D0B8091E4012D
:1029F000BE016F5F7F4F90E00E94AD118AE08B8334
:102A000063E070E0CE0101960E94CD0B04C083E329
:102A100090E10E948D0B81E08093F10187E04BC033
:102A20006091AF0170E04AE089EB91E00E941112E1
:102A30009C012150310920313105A8F58093E30133
:102A400084E00E94FF0D84E691E10E948D0B80914D
:102A5000E301BE016F5F7F4F90E01AC06091AF014C
:102A600070E04AE089EB91E00E9411120197D9F4DD
:102A70001092DB0188E00E94FF0D84E691E10E9444
:102A80008D0B8091DB0190E0BE016F5F7F4F01965F
:102A90000E94AD118AE08B8363E070E0CE01019665
:102AA0000E94CD0B04C083E390E10E948D0B81E076
:102AB0008093F10183E08093F00102C01092F00155
:102AC0000F900F900F900F90DF91CF911F9108956D
:102AD00096E0899FF0011124E05DFE4F8281938191
:102AE000089596E0899FF0011124E05DFE4F8481F6
:102AF0009581089596E0899FF0011124E05DFE4FD5
:102B00000190F081E02D208181E090E0062E01C04F
:102B1000880F0A94EAF7282B2083089596E0899F6E
:102B2000F0011124E05DFE4F0190F081E02D208145
:102B300081E090E0062E01C0880F0A94EAF78095A4
:102B400082238083089596E0899FF0011124E05D3F
:102B5000FE4F0280F381E02D208181E090E0062E7F
:102B600001C0880F0A94EAF7282B2083089596E085
:102B7000899FF0011124E05DFE4F0280F381E02D7A
:102B8000208181E090E0062E01C0880F0A94EAF7C8
:102B90008095822380830895E82FE695E695E69553
:102BA000F0E0E35DFD4F982F977021E030E001C029
:102BB000220F9A95EAF790819227908390912702AD
:102BC00096305CF4E92FFF27E7FDF095E65CFD4FBA
:102BD00080839F5F9093270208951092400281E0C6
:102BE0008093ED020895E82FE695E695E695F0E0EE
:102BF000E35DFD4F982F977021E030E001C0220F78
:102C00009A95EAF7908192279083409127022AE3D0
:102C100032E0F9019E2F921B9417A4F4519158139E
:102C2000F9CFE92FFF27E7FDF095E65CFD4F8181A5
:102C300080839F5F9417ACF341504093270210921A
:102C4000ED020895682F70E040E081E40C94931148
:102C50009091E20294305CF4E92FFF27E7FDF095B4
:102C6000E85DFD4F80839F5F9093E202089540E00E
:102C700060E070E082E40E94931110922C020895AB
:102C80004091E20228E232E0F9019E2F921B941754
:102C900094F451915813F9CFE92FFF27E7FDF095F0
:102CA000E85DFD4F818180839F5F9417ACF34150B5
:102CB0004093E2020895682F70E040E083E40C94B2
:102CC00093118091DD018093F10208959CE0899F2A
:102CD000600D11248091240268130DC08091E101E0
:102CE0009091E2018417950734F48091F0028F5F90
:102CF0008093F0020895109224021092F002089539
:102D0000E091E501F091E6014E175F0754F491E080
:102D1000F9019083FCE08F9F600D112460932402E1
:102D20000895F9011082109224021092F002089581
:102D30009091E902E92FEE0FFF0BEE5BFD4F209122
:102D4000260230E0322F2227282B3183208381E096
:102D5000890F8093E90280353CF01092EA0280935B
:102D6000AE0180E00C946F1B08959091F2029111D6
:102D700011C0805D8E3070F4E82FF0E0EE0FFF1F81
:102D8000EA5FFB4F85919491880F991F8A5F9B4F53
:102D90000C941F0C0895CF93C82F0E942816809181
:102DA000F1029091DD01891719F08B5F0E94811B60
:102DB00080E18C0F8093F10285E18C0F0E94761BDD
:102DC0008FE00E94761B1092E3028091F102E82FBF
:102DD000F0E0EA50FE4FE49190912502E13019F4C1
:102DE00098131AC011C0E43079F4E6EAF5E1E491F1
:102DF00020912602E22BE09326022091EE0222236C
:102E000019F0E777E0932602981308C08091F0024A
:102E1000811104C08091DD0180932502CF91089536
:102E20001F93CF93DF931F92CDB7DEB7182F69831F
:102E30000E9440165091F102252F30E0F901EA502E
:102E4000FE4F44916981443049F4E6EAF5E1E491AA
:102E5000E095909126029E23909326026623F9F036
:102E6000812F90E0805F910928173907C1F4809184
:102E7000F002882321F0433011F450932502809111
:102E8000E30281110CC0423051F4F901E85FFD4FBB
:102E90008491882321F0609126020E94080C809181
:102EA000F1028B5F0E94811BE091E202E11103C0FD
:102EB0008091250207C0FF27E7FDF095E95DFD4FF2
:102EC0008081805F8093F1028091F1029091DD0119
:102ED000891721F08B5F0E94761B03C08FE00E9450
:102EE000811B1092E3020F90DF91CF911F91089503
:102EF000805E90E0FC01E251FE4FE491E23059F037
:102F000028F4EE2351F0E13079F10895E33029F00F
:102F1000E43069F008951092EC02FC01EE0FFF1FFF
:102F2000E456FA4EE49180912602E82B26C0E6EAA8
:102F3000F5E1E49120912602E22BE0932602209114
:102F4000EE02222319F0E777E0932602FC01EE0F50
:102F5000FF1FE456FA4EE49180912602E82BE0939D
:102F60002602222399F00FC0FC01EE0FFF1FE4564A
:102F7000FA4EE49180912602E827E09326028091A0
:102F8000EE02882319F0E777E09326020895CF93A5
:102F9000DF93805EC82FD0E0FE01E251FE4FE49146
:102FA000E230C1F018F4EE2329F14DC0E33079F19D
:102FB000E43009F048C0E6EAF5E18491FE01EE0F45
:102FC000FF1FE456FA4EC491C82BC095809126028B
:102FD0008C231AC0662371F08091EC0281110AC023
:102FE000FE01E050FE4F8491882321F0609126027B
:102FF0000E94080CFE01EE0FFF1FE456FA4EE4910A
:10300000E095809126028E23809326021CC0FE014B
:10301000EE0FFF1F80912602E456FA4E662371F0F0
:103020009091F002992351F0E491E82BE09326026D
:103030008091EE02882339F0E77703C0E491E095B0
:10304000E823E0932602DF91CF910895CF93C82F14
:10305000863C78F5813C08F0B0C0893A09F47CC020
:1030600088F4813A09F45CC030F48CEF8C0F80371F
:1030700008F448C00EC1843A08F40BC1883A08F03D
:1030800064C051C08E3A09F477C060F48A3A09F4FA
:1030900007C18B3A09F0FDC06091260289E3CF9108
:1030A0000C94080C8F3A09F46BC0803C08F470C093
:1030B000F0C08E3D90F4803D08F0AAC0873C09F432
:1030C0008EC008F488C0883C09F48FC0893C09F0A0
:1030D000E0C0809141028F5F8BC0883E50F4803EFB
:1030E00008F0BFC08E3D09F496C08F3D09F4ABC017
:1030F000D0C08FE08C0F893008F0CBC08C2FCF91DF
:103100000C94CB168C2F0E94CC158091EA02882358
:1031100019F08C2F0E94981681E08093EC02C0C0B9
:10312000CF910C94991B8091EA028111B9C081E082
:103130008093EA021092E9029FEF9093EF0280934E
:10314000F202C45AC093EE01ABC08091F20291E04A
:1031500089278093F202A4C08091EE0291E0892732
:103160008093EE02811104C085E0CF910C94811B05
:1031700085E0CF910C94761B82E08093F30190C0A0
:103180008091F00181118CC081E08093F00188C0B2
:103190002091E4023091E502232B09F081C0C05B4D
:1031A000EC2FF0E0EE0FFF1FEF58FA4E859194914F
:1031B0009093E5028093E40273C0C15CEC2FF0E0D1
:1031C000EE0FFF1FEE56FA4EE4918091E6028E2B31
:1031D0008093E60265C08091E7028F5F03C0809113
:1031E000E70281508093E70205C08091410281503F
:1031F000809341029091DA018091F002992329F0A5
:103200009091D801981708F04BC08093D80148C01E
:10321000CF910C94B5168091EA0291E089278093B2
:10322000EA02882339F01092E9028FEF8093EF02CF
:1032300082E006C08091E90281118093AE0180E0B6
:10324000CF910C946F1B8091EA02811129C060918B
:10325000AE01772767FD709582E492E0CF910C94E0
:103260005C0C8091EA02882361F080912602811132
:1032700008C08091EF028F3F21F48091E902809392
:10328000EF028091F20281110BC08C2FCF910C9430
:1032900078176C2F70E040E084E4CF910C94931188
:1032A000CF9108951F93CF93DF931F92CDB7DEB7D1
:1032B000182F863CD0F4813C08F076C08B3A09F494
:1032C00054C048F4843008F4ABC0843788F1813AA4
:1032D00008F0B0C0A5C08E3A08F4A2C0803B08F444
:1032E000A9C0803C08F44AC09BC0803E90F4803D59
:1032F00008F0A0C0873C09F46AC008F464C0883CA8
:1033000009F46BC0893C09F08BC080914102815067
:1033100067C0883E08F467C08FE0810F893008F0ED
:103320007FC0812F0F90DF91CF911F910C941017C8
:103330000E94F3158091EA02882309F47BC08091F2
:10334000F202882309F476C0183219F01B3209F012
:1033500071C01092F2021092EA028091E90281504B
:103360008093AE011092EF0165C06091260289E35F
:103370000F90DF91CF911F910C94080C105BE12FFF
:10338000F0E0EE0FFF1FEF58FA4E859194912091D7
:10339000E4023091E5022817390709F04BC010927A
:1033A000E5021092E40246C0115CE12FF0E0EE0F5E
:1033B000FF1FEE56FA4EE491E0958091E6028E23CF
:1033C0008093E60237C08091E702815003C080916C
:1033D000E7028F5F8093E7022DC0809141028F5FEB
:1033E0008093410227C08091EA02882371F0909176
:1033F000EF028091E902981308C080E069830E947F
:1034000098168FEF8093EF0269818091F20281110B
:1034100011C0812F0F90DF91CF911F910C94C7178E
:10342000612F70E040E085E40F90DF91CF911F9114
:103430000C9493110F90DF91CF911F9108952091DB
:103440002602227291E009F090E02091E901222306
:1034500059F02091EB02222339F0992329F022EE32
:10346000280F2A3008F4855C2091E001222349F1DD
:10347000833581F48091EB0291E089278093EB0200
:10348000882321F080E00E94761B23C080E00E9408
:10349000811B1FC027EA280F2B3098F42091EB02E4
:1034A000E82FF0E0EE0FFF1F222341F0992331F0C7
:1034B000E755FB4E84918A3A69F407C0E655FB4E06
:1034C00084918A3A39F4992311F089E2089585E3C9
:1034D000089580E00895CF93DF93D82FC62F0E94E0
:1034E0006616E091F102F0E0EE0FFF1FEE5EFD4F79
:1034F00025913491EC2FF0E08CE0D89FE00DF11D88
:103500001124E20FF31F84910E941F1A9CE0D99F9F
:10351000F0011124EC0FF11DEC50FE4F80839091CF
:10352000E202992319F091E09093E3020E94261899
:10353000DF91CF910C948711FF920F931F93CF933C
:10354000DF931F92CDB7DEB79CE0899F80011124E5
:10355000060F111D0C501E4FF801F0809E012F5FC9
:103560003F4F0E94801669818F2D0E945219F801E9
:1035700010820F90DF91CF911F910F91FF900895CE
:103580002091F202211112C0FC01AAE3B2E081E015
:103590009091ED02992311F0808302C09C91908359
:1035A0003196119692E0A034B90791F708952091D1
:1035B000F202211109C0ADE2B2E0FC018D918193CC
:1035C00082E0AA33B807D1F708951092F102E2E140
:1035D000F2E025913491E62FF0E09CE0899FE00D28
:1035E000F11D1124E20FF31FE491E83211F0E835E8
:1035F00041F441E060E070E081E50E9493110E9497
:10360000700D8091DD018093F1020895282F30E044
:10361000F901EE0FFF1FE20FF31FE85EF34F8491F5
:10362000F901EE0FFF1FE20FF31FE95EF34F68177A
:1036300059F06491F901EE0FFF1FE20FF31FEA5EEC
:10364000F34F84910C94A3156491F901EE0FFF1FC1
:10365000E20FF31FEA5EF34F84910C94B715E7E194
:10366000FCE06491E6E1FCE084910E947A1560E060
:1036700080E00E94061B8091E3018093F702089589
:103680002091F9023091FA02E4EFF1E0C901BF01A3
:103690000E948C266091F5026E9FA0016F9F500DD5
:1036A00011242417350720F461E08A3F910508F0C2
:1036B00060E080E00E94061B8091F9029091FA027E
:1036C0000196803D27E0920728F49093FA028093B8
:1036D000F90208951092FA021092F9020895809367
:1036E000F5021092FA021092F9020895E82FF0E024
:1036F000EA5FF34FE491E11103C081E08093F302AC
:103700000895E82FF0E0EA5FF34FE491E11102C081
:103710001092F30208958091F402811102C060E0DA
:1037200005C08091F3028823D1F361E080E00C941E
:10373000061B8091F702803110F081E002C08C5F9F
:103740008C7F8093F70208958091F8028F5F81311A
:1037500018F48093F802089581E08093F8021092A3
:10376000F60208959091F702903120F081E0809365
:10377000F40208958091F6022091F802929F902D14
:103780001124891738F491E09093F402805F8093BC
:10379000F60208951092F40208950E94A41B0E945C
:1037A000B21B8091F50281110C94401B0C948B1B71
:1037B0006F927F928F929F92AF92BF92CF92DF9241
:1037C000EF92FF920F931F93CF93DF9300D01F923E
:1037D000CDB7DEB77C01ADB6BEB68091E80083FF01
:1037E00007C1F701808190E0209103033091040329
:1037F0002817390709F0FCC080910003833009F4D1
:103800009BC030F4813071F0823009F4D4C0F0C034
:103810008A3009F4B7C08B3009F49FC0893009F0B1
:10382000E7C04BC08091FF02813A09F0E1C08DB63C
:103830009EB61A82198280910103109102038B8334
:10384000F701408550E08DB79EB7841B950B0FB6EE
:10385000F8949EBF0FBE8DBFEDB7FEB731966F01D6
:1038600060E070E0CF010E9401274FEF410F8E0111
:103870000F5F1F4F9601BE016D5F7F4FC7010E9412
:103880009610F70186819781009729F0408550E0D6
:10389000B6010E94F8261092E9008091E800877F27
:1038A0008093E80069817A81C6010E94461E80915A
:1038B000E8008B778093E80039C08091FF02813265
:1038C00009F096C08DB69EB60091050310910603CF
:1038D00070900103609002038DB79EB7801B910B1F
:1038E0000FB6F8949EBF0FBE8DBFEDB7FEB73196F1
:1038F0006F018091E800877F8093E800B801CF01D5
:103900000E94A11E8091E8008E778093E80021E05C
:10391000711001C020E030E0021B130B2C0D3D1D87
:103920004FEF460D672DC7010E94F5100FB6F894B2
:103930009EBE0FBE8DBE5CC08091FF02813A09F031
:1039400057C08091E800877F8093E8008091E8006D
:1039500080FFFCCFF701818542C08091FF02813258
:1039600009F046C08091E800877F8093E8000E94BC
:10397000B21F9091010381E0911101C080E0F70135
:10398000818736C08091FF02813291F58091E800F5
:10399000877F8093E8000E94B21F8091010390917D
:1039A0000203882736E0969587953A95E1F7F70167
:1039B000958784871DC08091FF02813AC9F4809168
:1039C000E800877F8093E8008091E80080FFFCCFCB
:1039D000F70184859585969587959695879580932B
:1039E000F1008091E8008E778093E8000E94B21F7A
:1039F0000FB6F894BEBE0FBEADBE0F900F900F90E5
:103A0000DF91CF911F910F91FF90EF90DF90CF90BA
:103A1000BF90AF909F908F907F906F900895FC0122
:103A2000399627E0DF011D922A95E9F721E0FC0194
:103A3000218724EF31E03587248723E0248361E068
:103A400001960C94741F5F926F927F928F929F9257
:103A5000AF92BF92CF92DF92EF92FF920F931F939C
:103A6000CF93DF9300D01F92CDB7DEB77C01ADB608
:103A7000BEB68091FE02843009F08FC08091E400D0
:103A80009091E500F701228533852817390709F45D
:103A900084C081818F708093E9008091E80085FF68
:103AA0007CC08DB69EB6408550E08DB79EB7841B16
:103AB000950B0FB6F8949EBF0FBE8DBFEDB7FEB746
:103AC00031966F011B821A82198260E070E0CF018B
:103AD0000E9401278E010F5F1F4F960140E0BE013B
:103AE0006D5F7F4FC7010E949610682EF701848595
:103AF0009585892B41F021E086859785892B09F0F2
:103B000020E0722E01C0712CF7010681178101158A
:103B1000110599F049815A81B801C6010E94EB262E
:103B200055245394892B09F4512CF701408550E01A
:103B3000B601C8010E94F82601C0512C29813A81A2
:103B4000232BF9F0611004C0511002C070FE19C09F
:103B5000F701848595859787868781818F7080930B
:103B6000E9008B8181118093F10069817A8140E0C5
:103B700050E0C6010E94FB1D8091E8008E77809383
:103B8000E8008091E4009091E500F7019387828737
:103B90000FB6F8949EBE0FBE8DBE0FB6F894BEBE93
:103BA0000FBEADBE0F900F900F90DF91CF911F9180
:103BB0000F91FF90EF90DF90CF90BF90AF909F90CC
:103BC0008F907F906F905F90089580E189BD82E132
:103BD00089BD09B400FEFDCF8091D8008F7D809310
:103BE000D8008091E00082608093E0008091E00046
:103BF00081FDFCCF0895CF92DF92EF92FF920F9359
:103C00001F93CF93DF937C018B01EA010E94D31FA6
:103C1000811133C0209731F088819981081B190BDD
:103C2000E80EF91EC12CD12C0115110529F1809146
:103C3000E80085FD16C08091E8008E778093E8004B
:103C40000E949322209741F0888199818C0D9D1DBF
:103C50009983888385E011C00E94D31F882321F3B4
:103C60000CC0F70181917F018093F100015011098F
:103C7000FFEFCF1ADF0AD8CF80E0DF91CF911F91FD
:103C80000F91FF90EF90DF90CF9008952091050362
:103C9000309106032617370748F06115710539F48E
:103CA0002091E8002E772093E80001C0B901FC01C3
:103CB00020E061157105A9F18091FE028823E9F1E8
:103CC0008530E9F18091E80083FD35C08091E800FE
:103CD00082FF06C08091E80082FF26C080E0089540
:103CE0008091E80080FFE5CF2091F3008091F20001
:103CF00090E0922B6115710551F08830910538F4F0
:103D000021912093F100615071090196F3CF21E0D8
:103D1000089709F020E08091E8008E778093E80012
:103D2000C8CF2111C9CFD6CF8091FE02882329F0B8
:103D3000853081F604C081E0089582E0089583E033
:103D400008956115710529F42091E8002B772093DF
:103D5000E8006115710541F12091FE02222369F10D
:103D6000253069F12091E80023FD23C02091E8006F
:103D700022FFF2CFFC01CF014091F3002091F2002D
:103D800030E0342B232B01F38091F1008193CF019C
:103D9000615071096115710571F7D6CF8091FE02EE
:103DA000882359F0853059F08091E80080FFF6CFE4
:103DB00002C081E0089580E0089582E0089583E0E4
:103DC000089520910503309106032617370748F020
:103DD0006115710539F42091E8002E772093E800F1
:103DE00001C0B901FC0120E061157105C1F18091AC
:103DF000FE02882309F43FC0853009F43EC080915B
:103E0000E80083FD36C08091E80082FF06C0809103
:103E1000E80082FF27C080E008958091E80080FFDD
:103E2000E3CF2091F3008091F20090E0922B611596
:103E3000710559F08830910540F424912093F100E8
:103E40003196615071090196F2CF21E0089709F08F
:103E500020E08091E8008E778093E800C5CF2111A3
:103E6000C6CFD5CF8091FE02882329F0853079F620
:103E700004C081E0089582E0089583E00895982FBA
:103E8000973058F59093E900981739F07091EC004D
:103E90002091ED005091F00003C0242F762F50E0C8
:103EA00021FF19C03091EB003E7F3093EB00309141
:103EB000ED003D7F3093ED003091EB0031603093A9
:103EC000EB007093EC002093ED005093F0002091F4
:103ED000EE0027FF07C09F5FD3CF8F708093E9006C
:103EE00081E0089580E008950F931F93CF93DF93AF
:103EF000062FEC0110E0101779F19881992349F110
:103F00002C81E981FA817B81892F8F70873010F0B5
:103F100080E023C0223010F056E001C052E028E0DB
:103F200030E040E02E173F0720F44F5F220F331F91
:103F3000F9CF4295407F452B692F661F6627661F84
:103F400090E4799F90011124622B0E943F1F8823E7
:103F5000F9F21F5F2596CFCF81E0DF91CF911F91BE
:103F60000F9108958091FF0287FD05C08091E800C0
:103F700080FF0EC012C08091E80082FD05C08091D4
:103F8000FE028111F8CF08958091E8008B7708C078
:103F90008091FE028111EACF08958091E8008E772A
:103FA0008093E80008958091E4009091E50045E653
:103FB0002091EC0020FF21C02091E80020FD21C0CD
:103FC0002091FE02222389F0253089F02091EB0018
:103FD00025FD0FC02091E4003091E5002817390736
:103FE00039F3415041F0C901E3CF82E0089583E005
:103FF000089581E0089584E008952091E80022FF6B
:10400000DFCF80E008950E946F200E947720E0EECD
:10401000F0E0808181608083E8EDF0E080818F773F
:10402000808319BCA7EDB0E08C918E7F8C9380814A
:104030008F7E80831092FD0208950F931F93CF937C
:10404000DF930E946F200E947720C8EDD0E0888126
:104050008F77888388818068888388818F7D888333
:1040600019BC1092FE021092FB021092FC0200EEAC
:1040700010E0F80180818B7F808388818160888354
:1040800042E060E080E00E943F1FE1EEF0E08081CE
:104090008E7F8083E2EEF0E080818160808380818A
:1040A00088608083F80180818E7F80838881806131
:1040B0008883DF91CF911F910F910895E8EDF0E093
:1040C00080818F7E8083E7EDF0E080818160808356
:1040D00084E082BF81E08093FD020C941D20E8ED16
:1040E000F0E080818E7F80831092E200089510922C
:1040F000DA001092E10008951F920F920FB60F920E
:1041000011242F933F934F935F936F937F938F93DC
:104110009F93AF93BF93EF93FF938091E10082FF52
:104120000BC08091E20082FF07C08091E1008B7F8D
:104130008093E1000E9469108091DA0080FF1FC027
:104140008091D80080FF1BC08091DA008E7F809321
:10415000DA008091D90080FF0DC080E189BD82E145
:1041600089BD09B400FEFDCF81E08093FE020E946C
:10417000311005C019BC1092FE020E9432108091CD
:10418000E10080FF19C08091E20080FF15C080919E
:10419000E2008E7F8093E2008091E2008061809354
:1041A000E2008091D80080628093D80019BC85E03D
:1041B0008093FE020E9490108091E10084FF2EC047
:1041C0008091E20084FF2AC080E189BD82E189BD3F
:1041D00009B400FEFDCF8091D8008F7D8093D80078
:1041E0008091E1008F7E8093E1008091E2008F7EDC
:1041F0008093E2008091E20081608093E2008091F0
:10420000FB02811104C08091E30087FF02C084E0BB
:1042100001C081E08093FE020E9493108091E10032
:1042200083FF24C08091E20083FF20C08091E100E1
:10423000877F8093E10082E08093FE021092FB0270
:104240008091E1008E7F8093E1008091E2008E7F7B
:104250008093E2008091E20080618093E20042E07E
:1042600060E080E00E943F1F0E948F10FF91EF915D
:10427000BF91AF919F918F917F916F915F914F917E
:104280003F912F910F900FBE0F901F9018951F9385
:10429000CF93DF93CDB7DEB7AA970FB6F894DEBF02
:1042A0000FBECDBFEFEFF2E08091F100819323E0EC
:1042B000E730F207C9F70E9458108091E80083FFA9
:1042C0001AC12091FF0230910003832F90E08A30C1
:1042D000910508F010C1FC01E359FF4F0C94D6265C
:1042E000203881F0223809F006C1809103038F70D5
:1042F0008093E9008091EB0085FB882780F910927C
:10430000E90004C08091FC02811182E09091E800F4
:10431000977F9093E8008093F1001092F100C5C060
:10432000822F8D7F09F0E7C0222319F0223061F03F
:10433000E2C080910103813009F0DDC0333009F023
:1043400080E08093FC0228C080910103811124C089
:10435000209103032F7009F4CEC02093E9008091CF
:10436000EB0080FF19C08091EB00333011F48062C4
:1043700011C080618093EB0081E090E0022E01C0CB
:10438000880F0A94EAF78093EA001092EA0080917D
:10439000EB0088608093EB001092E9008091E800C8
:1043A000877F86C02111A7C0109101031F778091DC
:1043B000E3008078812B8093E3008091E800877F81
:1043C0008093E8000E94B21F8091E80080FFFCCF3C
:1043D0008091E30080688093E300112311F083E073
:1043E00001C082E08093FE0286C02058223008F08F
:1043F00082C080910103909102038C3D23E09207DB
:1044000079F583E08A838AE289834FB7F894DE01E5
:10441000139620E03EE051E2E32FF0E05093570086
:10442000E49120FF03C0E295EF703F5FEF708E2FA5
:1044300090E0EA3010F0C79601C0C0968D939D932E
:104440002F5F243149F74FBF8091E800877F809329
:10445000E8006AE270E0CE0101960E94461E14C098
:10446000AE014F5F5F4F609103030E94A80F00975A
:1044700009F441C02091E800277F2093E800BC01A7
:1044800089819A810E94E11E8091E8008B77809358
:10449000E80031C0203879F58091E800877F80936B
:1044A000E8008091FB028093F1008091E8008E7714
:1044B0008093E8000E94B21F1EC021111CC0909181
:1044C00001039230C0F48091E800877F8093E80078
:1044D0009093FB020E94B21F8091FB02811104C0E5
:1044E0008091E30087FF02C084E001C081E08093F7
:1044F000FE020E9433108091E80083FF0AC0809181
:10450000E800877F8093E8008091EB0080628093D1
:10451000EB00AA960FB6F894DEBF0FBECDBFDF91B9
:10452000CF911F910895CF938091FE028823B1F01F
:104530008091E9008F709091EC0090FF02C090E8AC
:1045400001C090E0C92FC82B1092E9008091E800CB
:1045500083FD0E944721CF70C093E900CF91089559
:1045600040E060E080E694E20E94FE2441E060E0EA
:1045700084E694E20E94FE2441E060E08EEA9CE042
:104580000E94FE2440E060E081EA9FE00E94FE2459
:1045900041E060E085E492E10E94FE2440E060E0BA
:1045A00082E39DE00E94FE2440E061E08DEC9BE10F
:1045B0000C94FE240E9492110E94C40D0E94682453
:1045C0000E94A5250E942F1B0E943E230E94611677
:1045D0000E94100D0E94150B0E942A0E0E94A12419
:1045E0000E94551181E08093E8020E945C241092A1
:1045F000E80281E00E946F1B40E061E083E691E108
:104600000E94FE240E94B0220C945E200E94442549
:104610008091F3018823E1F30C945D250E9403202F
:10462000F8942FEF87EA91E6215080409040E1F71F
:1046300000C000008091F301823031F48DEA9EEDDC
:104640009093B3038093B2038091F301882361F0C8
:104650002CE088E190E00FB6F894A8958093600074
:104660000FBE20936000FFCF08950E94DA220E94BF
:1046700006230E940E2380E090E00895DF92EF92DF
:10468000FF920F931F93CF93DF93C1E3DCE00DE222
:1046900013E0DD24D394FE0184910E946815F80193
:1046A0003297918380837E01FFEFEF1AFF0AF701B3
:1046B0008491FD2D01C0FF0F8A95EAF78F2FF80135
:1046C0008083F7016491FE0184910E947A15F701BD
:1046D0006491FE0184910E94A31522960D5F1F4FE5
:1046E000FCE0C933DF07B9F6C9E1DCE009E013E01B
:1046F000DD24D394FE0184910E947115F801329754
:10470000918380837E01FFEFEF1AFF0AF701849106
:10471000FD2D01C0FF0F8A95EAF78F2FF8018083E6
:10472000F7016491FE0184910E948E15F701649156
:10473000FE0184910E94A31522960D5F1F4FFCE09D
:10474000C133DF07B9F6DF91CF911F910F91FF9031
:10475000EF90DF900895CF93DF93962F642F2CE096
:10476000929FE0011124C40FD11DCC0FDD1FC95C45
:10477000DC4F488159818823C9F057FF0FC0209131
:10478000EA0130E0319521953109241735074CF1C4
:10479000892F0E946B1A82E090E019C08091E50198
:1047A0009091E6014817590704F509C0141615063B
:1047B0008CF42091EA0130E0421753071CF44E5F5D
:1047C0005F4F11C0892F0E949C1A8EEF9FEF998333
:1047D00088830BC08091E1019091E20184179507D5
:1047E00024F44250510959834883DF91CF910895B1
:1047F000AF92BF92CF92DF92EF92FF920F931F93EF
:10480000CF93DF93D62EB82E52E0C52EBD140CF0F8
:1048100048C0CB2DDD27C7FDD095FE01EE0FFF1F51
:10482000EC0FFD1FE55DFC4FA081B1819C91828161
:10483000809589238C938C2D8A95F1F709E013E0FC
:10484000A12C7E01EE0CFF1CF80132970190F08143
:10485000E02D9081F8018081982381E009F080E0CB
:104860009091E802992339F0882349F06A2D8B2D25
:104870000E94E51A04C04A2D6B2D0E94AB23A3941D
:104880000D5F1F4FFCE0AF12DFCFCE0DDF1DC55D0A
:10489000DC4FE881F98180819A81892B8083B394F0
:1048A000B5CFDF91CF911F910F91FF90EF90DF90E7
:1048B000CF90BF90AF90089564E080E00C94F8230F
:1048C00062E080E00C94F82364E082E00C94F8232A
:1048D000E4E6F0E0808180718083A5E6B0E08C9111
:1048E00086778C93808181608083808184608083DF
:1048F0008081806280838081806480838C918860E5
:104900008C938081806880838081826080838C9199
:1049100081608C938C918F778C9390E080E80FB6B8
:10492000F89480936100909361000FBE08951F92E8
:104930000F920FB60F9211240F900FBE0F901F9081
:1049400018954AEC54E261E070E081E00C94A925EE
:104950000F931F93CF93DF939AE0899F80011124D7
:1049600009561C4FC0E0D0E0FE01EE0FFF1FE00F24
:10497000F11F0190F081E02D309719F0C093AD0345
:1049800009952196C530D10579F7DF91CF911F9117
:104990000F9108958091AC03882381F08091AB033F
:1049A0006091AD0370E0782B40E081E10E949311AB
:1049B0008091AC038F5F8093AC03089581E0809376
:1049C000AC0378948091AB030E94A8248091AB0340
:1049D0008F5F8093AB03823010F01092AB03809115
:1049E000AC03823038F06091AC0370E040E084E1C9
:1049F0000E949311A8951092AC030895FF920F9313
:104A00001F93CF93DF93EC01062F142F55E0F52E63
:104A1000123070F5612F70E08AE0189FF0011124C8
:104A2000E956FC4F20E030E0D901AA0FBB1FAE0FC2
:104A3000BF1F8D919C91892B71F4F69EF001F79E1A
:104A4000F00D1124E20FF31FEE0FFF1FE956FC4F8C
:104A5000D183C08309C02F5F3F4F2530310521F737
:104A600041E083E10E949311002311F0100FD0CF99
:104A7000DF91CF911F910F91FF900895E0E6F0E054
:104A80008081806C808308951092AB03789481E0DC
:104A90000E944A262AE088E190E00FB6F894A89593
:104AA000809360000FBE209360000C943E25E0E6EA
:104AB000F0E080818F7B8083089588E10FB6F894C1
:104AC00080936000109260000FBE0E94572581E025
:104AD0000C9472261F920F920FB60F9211242F93EF
:104AE0003F934F935F936F937F938F939F93AF9376
:104AF000BF93EF93FF931092850010928400E09192
:104B0000A401F091A5010995FF91EF91BF91AF919B
:104B10009F918F917F916F915F914F913F912F91D5
:104B20000F900FBE0F901F9018959FE0899FF00186
:104B30001124E25BFE4FA081B1811C920480F581BB
:104B4000E02D309709F01082089513BC81E00C9499
:104B500095258F929F92AF92BF92CF92DF92EF9264
:104B6000FF920F931F93CF93DF93C82F7B016A01AE
:104B70009B01A0E8BEE30E94DC264B015C010C2FE8
:104B800010E08FE0C89FE0011124C25BDE4F2D854D
:104B90003E8540E050E0C501B4010E94B426EE819C
:104BA000FF81E801C255DC4F213081E03807410523
:104BB000510558F04AE0B694A794979487944A9583
:104BC000D1F79182808285E039C0213431054105D9
:104BD000510540F0892C9A2CAB2CBB249182808209
:104BE00084E02CC0293031054105510558F026E0FC
:104BF000B694A794979487942A95D1F7918280824E
:104C000083E01CC0223031054105510558F093E086
:104C1000B694A794979487949A95D1F791828082BD
:104C200082E00CC020E83EE3E29EC001E39E900DCE
:104C3000F29E900D11249183808381E088838FE020
:104C4000809FF001819FF00D1124E25BFE4F0680F2
:104C5000F781E02D6081718140E082E30E94931131
:104C6000688170E041E080E30E949311F801EE0F4B
:104C7000FF1FEE55FE4FD182C082DF91CF911F9171
:104C80000F91FF90EF90DF90CF90BF90AF909F90EB
:104C90008F900895CF93DF93A82FB0E09FE0899F76
:104CA000F0011124E25BFE4FC085D1851982188284
:104CB000C281D381A255BC4F8C918883A681B781D4
:104CC0008D919C91892B59F0A285B38581E090E06C
:104CD000048402C0880F991F0A94E2F78C93DF9135
:104CE000CF9108959FE0899FF0011124E25BFE4F70
:104CF000A285B3851C920280F381E02D1082089575
:104D0000991B79E004C0991F961708F0961B881F1D
:104D10007A95C9F780950895AA1BBB1B51E107C07E
:104D2000AA1FBB1FA617B70710F0A61BB70B881F3B
:104D3000991F5A95A9F780959095BC01CD010895CA
:104D400097FB072E16F4009407D077FD09D00E9438
:104D50008C2607FC05D03EF4909581959F4F0895D1
:104D6000709561957F4F0895A1E21A2EAA1BBB1B77
:104D7000FD010DC0AA1FBB1FEE1FFF1FA217B30727
:104D8000E407F50720F0A21BB30BE40BF50B661F3D
:104D9000771F881F991F1A9469F760957095809501
:104DA00090959B01AC01BD01CF010895EE0FFF1F4F
:104DB0000590F491E02D0994A29FB001B39FC0012A
:104DC000A39F700D811D1124911DB29F700D811D37
:104DD0001124911D0895FB01DC0104C08D91019007
:104DE000801921F441505040C8F7881B990B089551
:104DF000FB01DC0102C001900D9241505040D8F7F8
:104E00000895DC0101C06D9341505040E0F70895D2
:104E1000F999FECF92BD81BDF89A992780B5089582
:104E2000A8E1B0E042E050E00C943527DC01CB0172
:104E300003C02D910E94212741505040D0F7089582
:104E4000262FF999FECF1FBA92BD81BD20BD0FB6A6
:104E5000F894FA9AF99A0FBE019608950E942027B5
:104E6000272F0C942127DC01CB01FC01F999FECFFF
:104E700006C0F2BDE1BDF89A319600B40D924150E2
:104E80005040B8F70895F894FFCF02830200000164
:104E90008B010200000000000000018203000001FD
:104EA0008D010300000000000000008112000001DD
:104EB00090011200000000000000240025002300E3
:104EC0002700280026002A002B0029002D002E0094
:104ED0002C00300031002F00440045000000470046
:104EE00046006E0001FF008000810082008800847F
:104EF000006F0001FFFF0000000000000000000044
:104F00000000000000900091009200980094007151
:044F10000001FFFF9E
:00000001FF
